{
  "contractName": "MultiSigWallet",
  "abi": [
    {
      "inputs": [],
      "payable": false,
      "stateMutability": "nonpayable",
      "type": "constructor",
      "signature": "constructor"
    },
    {
      "anonymous": false,
      "inputs": [
        {
          "indexed": false,
          "name": "_from",
          "type": "address"
        },
        {
          "indexed": false,
          "name": "_amount",
          "type": "uint256"
        }
      ],
      "name": "DepositFunds",
      "type": "event",
      "signature": "0xd241e73300212f6df233a8e6d3146b88a9d4964e06621d54b5ff6afeba7b1b88"
    },
    {
      "anonymous": false,
      "inputs": [
        {
          "indexed": false,
          "name": "_from",
          "type": "address"
        },
        {
          "indexed": false,
          "name": "_to",
          "type": "address"
        },
        {
          "indexed": false,
          "name": "_amount",
          "type": "uint256"
        },
        {
          "indexed": false,
          "name": "_transactionId",
          "type": "uint256"
        }
      ],
      "name": "TransactionCreated",
      "type": "event",
      "signature": "0x41d8c89c4a25824354aa1f198d80d06f2f93f903a2d180d1ea20429a4678c4a4"
    },
    {
      "anonymous": false,
      "inputs": [
        {
          "indexed": false,
          "name": "_from",
          "type": "address"
        },
        {
          "indexed": false,
          "name": "_to",
          "type": "address"
        },
        {
          "indexed": false,
          "name": "_amount",
          "type": "uint256"
        },
        {
          "indexed": false,
          "name": "_transactionId",
          "type": "uint256"
        }
      ],
      "name": "TransactionCompleted",
      "type": "event",
      "signature": "0x394c4e679790fab24fd86614fd812811c9c835e4c475bdfc3d26fd0d6f7ca6fd"
    },
    {
      "anonymous": false,
      "inputs": [
        {
          "indexed": false,
          "name": "_by",
          "type": "address"
        },
        {
          "indexed": false,
          "name": "_transactionIdx",
          "type": "uint256"
        }
      ],
      "name": "TransactionSigned",
      "type": "event",
      "signature": "0xac63e7e1dc16bccf900879686e74ca33eeb175b670e3aaa9d7e4ccf3781b7a7a"
    },
    {
      "constant": false,
      "inputs": [
        {
          "name": "_newOwner",
          "type": "address"
        }
      ],
      "name": "addOwner",
      "outputs": [],
      "payable": false,
      "stateMutability": "nonpayable",
      "type": "function",
      "signature": "0x7065cb48"
    },
    {
      "constant": false,
      "inputs": [
        {
          "name": "_existingOwner",
          "type": "address"
        }
      ],
      "name": "removeOwner",
      "outputs": [],
      "payable": false,
      "stateMutability": "nonpayable",
      "type": "function",
      "signature": "0x173825d9"
    },
    {
      "constant": false,
      "inputs": [],
      "name": "deposit",
      "outputs": [],
      "payable": true,
      "stateMutability": "payable",
      "type": "function",
      "signature": "0xd0e30db0"
    },
    {
      "constant": false,
      "inputs": [
        {
          "name": "_amount",
          "type": "uint256"
        }
      ],
      "name": "withdraw",
      "outputs": [],
      "payable": false,
      "stateMutability": "nonpayable",
      "type": "function",
      "signature": "0x2e1a7d4d"
    },
    {
      "constant": false,
      "inputs": [
        {
          "name": "_to",
          "type": "address"
        },
        {
          "name": "_amount",
          "type": "uint256"
        }
      ],
      "name": "transferTo",
      "outputs": [],
      "payable": false,
      "stateMutability": "nonpayable",
      "type": "function",
      "signature": "0x2ccb1b30"
    },
    {
      "constant": true,
      "inputs": [],
      "name": "getPendingTransactions",
      "outputs": [
        {
          "name": "",
          "type": "uint256[]"
        }
      ],
      "payable": false,
      "stateMutability": "view",
      "type": "function",
      "signature": "0xd11db83f"
    },
    {
      "constant": false,
      "inputs": [
        {
          "name": "_transactionId",
          "type": "uint256"
        }
      ],
      "name": "signTransaction",
      "outputs": [],
      "payable": true,
      "stateMutability": "payable",
      "type": "function",
      "signature": "0x5d9ec210"
    },
    {
      "constant": false,
      "inputs": [
        {
          "name": "_transactionId",
          "type": "uint256"
        }
      ],
      "name": "deleteTransaction",
      "outputs": [],
      "payable": false,
      "stateMutability": "nonpayable",
      "type": "function",
      "signature": "0x00e9c006"
    },
    {
      "constant": false,
      "inputs": [],
      "name": "walletBalance",
      "outputs": [
        {
          "name": "",
          "type": "uint256"
        }
      ],
      "payable": false,
      "stateMutability": "nonpayable",
      "type": "function",
      "signature": "0xcd0a314b"
    }
  ],
  "bytecode": "0x608060405234801561001057600080fd5b50336000806101000a81548173ffffffffffffffffffffffffffffffffffffffff021916908373ffffffffffffffffffffffffffffffffffffffff160217905550611107806100606000396000f3fe608060405260043610610098576000357c0100000000000000000000000000000000000000000000000000000000900463ffffffff168062e9c0061461009d578063173825d9146100d85780632ccb1b30146101295780632e1a7d4d146101845780635d9ec210146101bf5780637065cb48146101ed578063cd0a314b1461023e578063d0e30db014610269578063d11db83f14610273575b600080fd5b3480156100a957600080fd5b506100d6600480360360208110156100c057600080fd5b81019080803590602001909291905050506102df565b005b3480156100e457600080fd5b50610127600480360360208110156100fb57600080fd5b81019080803573ffffffffffffffffffffffffffffffffffffffff1690602001909291905050506104ed565b005b34801561013557600080fd5b506101826004803603604081101561014c57600080fd5b81019080803573ffffffffffffffffffffffffffffffffffffffff169060200190929190803590602001909291905050506105a4565b005b34801561019057600080fd5b506101bd600480360360208110156101a757600080fd5b81019080803590602001909291905050506108c6565b005b6101eb600480360360208110156101d557600080fd5b81019080803590602001909291905050506108f9565b005b3480156101f957600080fd5b5061023c6004803603602081101561021057600080fd5b81019080803573ffffffffffffffffffffffffffffffffffffffff169060200190929190505050610d89565b005b34801561024a57600080fd5b50610253610e3f565b6040518082815260200191505060405180910390f35b610271610e5e565b005b34801561027f57600080fd5b50610288610f26565b6040518080602001828103825283818151815260200191508051906020019060200280838360005b838110156102cb5780820151818401526020810190506102b0565b505050509050019250505060405180910390f35b6000809054906101000a900473ffffffffffffffffffffffffffffffffffffffff1673ffffffffffffffffffffffffffffffffffffffff163373ffffffffffffffffffffffffffffffffffffffff161480610388575060018060003373ffffffffffffffffffffffffffffffffffffffff1673ffffffffffffffffffffffffffffffffffffffff16815260200190815260200160002060009054906101000a900460ff1660ff16145b151561039357600080fd5b600080905060008090505b60048054905081101561042a578160ff16600114156103f6576004818154811015156103c657fe5b90600052602060002001546004600183038154811015156103e357fe5b906000526020600020018190555061041d565b60048181548110151561040557fe5b906000526020600020015483141561041c57600191505b5b808060010191505061039e565b50600460016004805490500381548110151561044257fe5b906000526020600020016000905560016004818180549050039150816104689190611032565b5060036000838152602001908152602001600020600080820160006101000a81549073ffffffffffffffffffffffffffffffffffffffff02191690556001820160006101000a81549073ffffffffffffffffffffffffffffffffffffffff021916905560028201600090556003820160006101000a81549060ff021916905550505050565b6000809054906101000a900473ffffffffffffffffffffffffffffffffffffffff1673ffffffffffffffffffffffffffffffffffffffff163373ffffffffffffffffffffffffffffffffffffffff1614151561054857600080fd5b6000600160008373ffffffffffffffffffffffffffffffffffffffff1673ffffffffffffffffffffffffffffffffffffffff16815260200190815260200160002060006101000a81548160ff021916908360ff16021790555050565b6000809054906101000a900473ffffffffffffffffffffffffffffffffffffffff1673ffffffffffffffffffffffffffffffffffffffff163373ffffffffffffffffffffffffffffffffffffffff16148061064d575060018060003373ffffffffffffffffffffffffffffffffffffffff1673ffffffffffffffffffffffffffffffffffffffff16815260200190815260200160002060009054906101000a900460ff1660ff16145b151561065857600080fd5b803073ffffffffffffffffffffffffffffffffffffffff16311015151561067e57600080fd5b6000600160025401905061069061105e565b33816000019073ffffffffffffffffffffffffffffffffffffffff16908173ffffffffffffffffffffffffffffffffffffffff168152505083816020019073ffffffffffffffffffffffffffffffffffffffff16908173ffffffffffffffffffffffffffffffffffffffff1681525050828160400181815250506000816060019060ff16908160ff1681525050806003600084815260200190815260200160002060008201518160000160006101000a81548173ffffffffffffffffffffffffffffffffffffffff021916908373ffffffffffffffffffffffffffffffffffffffff16021790555060208201518160010160006101000a81548173ffffffffffffffffffffffffffffffffffffffff021916908373ffffffffffffffffffffffffffffffffffffffff1602179055506040820151816002015560608201518160030160006101000a81548160ff021916908360ff16021790555090505060048290806001815401808255809150509060018203906000526020600020016000909192909190915055507f41d8c89c4a25824354aa1f198d80d06f2f93f903a2d180d1ea20429a4678c4a433858585604051808573ffffffffffffffffffffffffffffffffffffffff1673ffffffffffffffffffffffffffffffffffffffff1681526020018473ffffffffffffffffffffffffffffffffffffffff1673ffffffffffffffffffffffffffffffffffffffff16815260200183815260200182815260200194505050505060405180910390a150505050565b803073ffffffffffffffffffffffffffffffffffffffff1631101515156108ec57600080fd5b6108f633826105a4565b50565b6000809054906101000a900473ffffffffffffffffffffffffffffffffffffffff1673ffffffffffffffffffffffffffffffffffffffff163373ffffffffffffffffffffffffffffffffffffffff1614806109a2575060018060003373ffffffffffffffffffffffffffffffffffffffff1673ffffffffffffffffffffffffffffffffffffffff16815260200190815260200160002060009054906101000a900460ff1660ff16145b15156109ad57600080fd5b60006003600083815260200190815260200160002090508060000160009054906101000a900473ffffffffffffffffffffffffffffffffffffffff1673ffffffffffffffffffffffffffffffffffffffff16600073ffffffffffffffffffffffffffffffffffffffff1614151515610a2457600080fd5b8060000160009054906101000a900473ffffffffffffffffffffffffffffffffffffffff1673ffffffffffffffffffffffffffffffffffffffff163373ffffffffffffffffffffffffffffffffffffffff1614151515610a8357600080fd5b60018160040160003373ffffffffffffffffffffffffffffffffffffffff1673ffffffffffffffffffffffffffffffffffffffff16815260200190815260200160002060009054906101000a900460ff1660ff1614151515610ae457600080fd5b60018160040160003373ffffffffffffffffffffffffffffffffffffffff1673ffffffffffffffffffffffffffffffffffffffff16815260200190815260200160002060006101000a81548160ff021916908360ff16021790555060018160030160008282829054906101000a900460ff160192506101000a81548160ff021916908360ff1602179055507fac63e7e1dc16bccf900879686e74ca33eeb175b670e3aaa9d7e4ccf3781b7a7a3383604051808373ffffffffffffffffffffffffffffffffffffffff1673ffffffffffffffffffffffffffffffffffffffff1681526020018281526020019250505060405180910390a160028160030160009054906101000a900460ff1660ff16101515610d855780600201543073ffffffffffffffffffffffffffffffffffffffff163110151515610c2257600080fd5b8060010160009054906101000a900473ffffffffffffffffffffffffffffffffffffffff1673ffffffffffffffffffffffffffffffffffffffff166108fc82600201549081150290604051600060405180830381858888f19350505050158015610c90573d6000803e3d6000fd5b507f394c4e679790fab24fd86614fd812811c9c835e4c475bdfc3d26fd0d6f7ca6fd8160000160009054906101000a900473ffffffffffffffffffffffffffffffffffffffff168260010160009054906101000a900473ffffffffffffffffffffffffffffffffffffffff16836002015485604051808573ffffffffffffffffffffffffffffffffffffffff1673ffffffffffffffffffffffffffffffffffffffff1681526020018473ffffffffffffffffffffffffffffffffffffffff1673ffffffffffffffffffffffffffffffffffffffff16815260200183815260200182815260200194505050505060405180910390a15b5050565b6000809054906101000a900473ffffffffffffffffffffffffffffffffffffffff1673ffffffffffffffffffffffffffffffffffffffff163373ffffffffffffffffffffffffffffffffffffffff16141515610de457600080fd5b60018060008373ffffffffffffffffffffffffffffffffffffffff1673ffffffffffffffffffffffffffffffffffffffff16815260200190815260200160002060006101000a81548160ff021916908360ff16021790555050565b60003073ffffffffffffffffffffffffffffffffffffffff1631905090565b6000809054906101000a900473ffffffffffffffffffffffffffffffffffffffff1673ffffffffffffffffffffffffffffffffffffffff163373ffffffffffffffffffffffffffffffffffffffff16141515610eb957600080fd5b7fd241e73300212f6df233a8e6d3146b88a9d4964e06621d54b5ff6afeba7b1b883334604051808373ffffffffffffffffffffffffffffffffffffffff1673ffffffffffffffffffffffffffffffffffffffff1681526020018281526020019250505060405180910390a1565b60606000809054906101000a900473ffffffffffffffffffffffffffffffffffffffff1673ffffffffffffffffffffffffffffffffffffffff163373ffffffffffffffffffffffffffffffffffffffff161480610fd1575060018060003373ffffffffffffffffffffffffffffffffffffffff1673ffffffffffffffffffffffffffffffffffffffff16815260200190815260200160002060009054906101000a900460ff1660ff16145b1515610fdc57600080fd5b600480548060200260200160405190810160405280929190818152602001828054801561102857602002820191906000526020600020905b815481526020019060010190808311611014575b5050505050905090565b8154818355818111156110595781836000526020600020918201910161105891906110b6565b5b505050565b608060405190810160405280600073ffffffffffffffffffffffffffffffffffffffff168152602001600073ffffffffffffffffffffffffffffffffffffffff16815260200160008152602001600060ff1681525090565b6110d891905b808211156110d45760008160009055506001016110bc565b5090565b9056fea165627a7a723058200f215b60b9f83689379653e29a8f2e744bdcdd0d3ac9b51a46d3da6914075dff0029",
  "source": "pragma solidity ^0.5.0;\r\n\r\ncontract MultiSigWallet {\r\n    address private owner;\r\n    mapping(address => uint8) private owners;\r\n    \r\n    uint constant MIN_SIGNATURES = 2;\r\n    uint private transactionIdx;\r\n    \r\n    struct Transaction {\r\n        address from;\r\n        address payable to;\r\n        uint amount;\r\n        uint8 signatureCount;\r\n        mapping(address => uint8) signatures;\r\n    }\r\n    mapping (uint => Transaction) private transations;\r\n    uint[] private pendingTransactions;\r\n    \r\n    modifier isOwner(){\r\n        require(msg.sender == owner);\r\n        _;\r\n    }\r\n    modifier validOwner() {\r\n        require(msg.sender == owner || owners[msg.sender] == 1);\r\n        _;\r\n    }\r\n    \r\n    constructor() public {\r\n        owner = msg.sender;\r\n    }\r\n    \r\n    event DepositFunds(address _from, uint _amount );\r\n    event TransactionCreated(address _from, address _to, uint _amount, uint _transactionId);\r\n    event TransactionCompleted(address _from, address _to, uint _amount, uint _transactionId);\r\n    event TransactionSigned(address _by, uint _transactionIdx);\r\n    \r\n    function addOwner(address _newOwner) isOwner public {\r\n        owners[_newOwner] = 1;\r\n    }\r\n    function removeOwner (address _existingOwner) isOwner public {\r\n        owners[_existingOwner] = 0;\r\n    }\r\n    function deposit() isOwner public payable {\r\n        emit DepositFunds(msg.sender,msg.value);\r\n    }\r\n    function withdraw (uint _amount) public {\r\n        require(address(this).balance >= _amount);\r\n        transferTo(msg.sender,_amount);\r\n    }\r\n    function transferTo(address payable _to, uint _amount) validOwner public {\r\n        require(address(this).balance >= _amount);\r\n        uint transactionId = transactionIdx + 1;\r\n        Transaction memory transaction;\r\n        transaction.from = msg.sender;\r\n        transaction.to = _to;\r\n        transaction.amount = _amount;\r\n        transaction.signatureCount = 0;\r\n        \r\n        transations[transactionId] = transaction;\r\n        pendingTransactions.push(transactionId);\r\n        \r\n        emit TransactionCreated(msg.sender, _to, _amount, transactionId);\r\n    }\r\n    \r\n    function getPendingTransactions() view validOwner public returns (uint[] memory) {\r\n        return pendingTransactions;\r\n    }\r\n    \r\n    function signTransaction(uint _transactionId) validOwner public payable{\r\n        Transaction storage transaction = transations[_transactionId];\r\n        require(address(0) != transaction.from);   //transaction must exist\r\n        require(msg.sender != transaction.from);    //creater cannot sign the transaction\r\n        require(transaction.signatures[msg.sender] != 1);   //cannot sign a transaction more than once\r\n        transaction.signatures[msg.sender] = 1;\r\n        transaction.signatureCount +=1;\r\n        emit TransactionSigned(msg.sender, _transactionId);\r\n        \r\n        if (transaction.signatureCount >= MIN_SIGNATURES) {\r\n            require(address(this).balance >= transaction.amount);\r\n            transaction.to.transfer(transaction.amount);\r\n            emit TransactionCompleted(transaction.from, transaction.to, transaction.amount, _transactionId);\r\n        }\r\n        \r\n    }\r\n    function deleteTransaction (uint _transactionId) validOwner public {\r\n        uint8 replace = 0;\r\n        for (uint i=0 ; i< pendingTransactions.length; i++) {\r\n            if (1 == replace) {\r\n                pendingTransactions[i-1] = pendingTransactions [i];\r\n            }\r\n            else if(_transactionId == pendingTransactions[i]) {\r\n                replace =1;\r\n            }\r\n        }\r\n        delete pendingTransactions[pendingTransactions.length -1 ];\r\n        pendingTransactions.length -=1 ;\r\n        delete transations[_transactionId];\r\n    }\r\n    function walletBalance() public returns(uint) {\r\n        return address(this).balance;\r\n        \r\n    }\r\n    \r\n}",
  "sourcePath": "D:/NITASHA GUPTA/Documents/Github/multi-sig-wallet/contracts/MultiSigWallet.sol",
  "compiler": {
    "name": "solc",
    "version": "0.5.0+commit.1d4f565a.Emscripten.clang"
  },
  "schemaVersion": "3.0.1",
  "updatedAt": "2020-07-20T19:42:58.278Z",
  "devdoc": {
    "methods": {}
  },
  "userdoc": {
    "methods": {}
  }
}